{
  "transactions": [
    {
      "hash": "0xe721f11f27a1268af2be6b26e0952bdb6b7c000b294214004edbe8188f6f33f0",
      "transactionType": "CALL",
      "contractName": "GnosisSafeProxyFactory",
      "contractAddress": "0xa6B71E26C5e0845f74c812102Ca7114b6a896AB2",
      "function": "createProxyWithNonce(address,bytes,uint256):(address)",
      "arguments": [
        "0xd9Db270c1B5E3Bd161E8c8503c55cEABeE709552",
        "0xb63e800d000000000000000000000000000000000000000000000000000000000000010000000000000000000000000000000000000000000000000000000000000000010000000000000000000000000000000000000000000000000000000000000000000000000000000000000000000000000000000000000000000000000000016000000000000000000000000000000000000000000000000000000000000000000000000000000000000000000000000000000000000000000000000000000000000000000000000000000000000000000000000000000000000000000000000000000000000000000000000000000000000000000000000000000000000000000000000000000000000000000000000000000000000000000000000000000002000000000000000000000000e432a8314d971441ad7700e8b45d66cc326ce517000000000000000000000000030d144c32b519b497e756f488fdc987472010290000000000000000000000000000000000000000000000000000000000000000",
        "1337"
      ],
      "transaction": {
        "type": "0x02",
        "from": "0x030d144c32b519b497e756f488fdc98747201029",
        "to": "0xa6b71e26c5e0845f74c812102ca7114b6a896ab2",
        "gas": "0x578d2",
        "value": "0x0",
        "data": "0x1688f0b9000000000000000000000000d9db270c1b5e3bd161e8c8503c55ceabee709552000000000000000000000000000000000000000000000000000000000000006000000000000000000000000000000000000000000000000000000000000005390000000000000000000000000000000000000000000000000000000000000184b63e800d000000000000000000000000000000000000000000000000000000000000010000000000000000000000000000000000000000000000000000000000000000010000000000000000000000000000000000000000000000000000000000000000000000000000000000000000000000000000000000000000000000000000016000000000000000000000000000000000000000000000000000000000000000000000000000000000000000000000000000000000000000000000000000000000000000000000000000000000000000000000000000000000000000000000000000000000000000000000000000000000000000000000000000000000000000000000000000000000000000000000000000000000000000000000000000000002000000000000000000000000e432a8314d971441ad7700e8b45d66cc326ce517000000000000000000000000030d144c32b519b497e756f488fdc98747201029000000000000000000000000000000000000000000000000000000000000000000000000000000000000000000000000000000000000000000000000",
        "nonce": "0x65",
        "accessList": []
      },
      "additionalContracts": [
        {
          "transactionType": "CREATE2",
          "address": "0x53879d88449e7DbC5B789dD510E4c9fF384B04ca",
          "initCode": "0x608060405234801561001057600080fd5b506040516101e63803806101e68339818101604052602081101561003357600080fd5b8101908080519060200190929190505050600073ffffffffffffffffffffffffffffffffffffffff168173ffffffffffffffffffffffffffffffffffffffff1614156100ca576040517f08c379a00000000000000000000000000000000000000000000000000000000081526004018080602001828103825260228152602001806101c46022913960400191505060405180910390fd5b806000806101000a81548173ffffffffffffffffffffffffffffffffffffffff021916908373ffffffffffffffffffffffffffffffffffffffff1602179055505060ab806101196000396000f3fe608060405273ffffffffffffffffffffffffffffffffffffffff600054167fa619486e0000000000000000000000000000000000000000000000000000000060003514156050578060005260206000f35b3660008037600080366000845af43d6000803e60008114156070573d6000fd5b3d6000f3fea2646970667358221220d1429297349653a4918076d650332de1a1068c5f3e07c5c82360c277770b955264736f6c63430007060033496e76616c69642073696e676c65746f6e20616464726573732070726f7669646564000000000000000000000000d9db270c1b5e3bd161e8c8503c55ceabee709552"
        }
      ],
      "isFixedGasLimit": false
    }
  ],
  "receipts": [],
  "libraries": [],
  "pending": [
    "0xe721f11f27a1268af2be6b26e0952bdb6b7c000b294214004edbe8188f6f33f0"
  ],
  "returns": {},
  "timestamp": 1697578192,
  "chain": 5,
  "multi": false,
  "commit": "e7d5ab4"
}